:1000000053C100006EC100006CC100006AC1000055
:1000100068C1000066C1000064C1000062C1000048
:1000200060C100005EC100000C94B20D5AC1000016
:1000300058C1000056C1000054C1000052C1000068
:1000400050C100004EC100004CC100004AC1000078
:1000500048C1000046C1000044C1000042C1000088
:1000600040C100003EC100003CC100003AC1000098
:1000700038C1000036C1000034C1000032C10000A8
:1000800030C100002EC100002CC100002AC10000B8
:1000900028C1000026C1000024C1000022C10000C8
:1000A00020C100001EC100001CC10000A10EC30E33
:1000B000B00FC30EB00F080F2A0FB00F7C0F8E0FBA
:1000C00000000000141A0817042B0000001519077F
:1000D000090A000000001D1B060516000000301272
:1000E00018111C13000000340B0D0E0F330000001C
:1000F000350C1036372F35000000141A0815172B51
:10010000000000041607090A000000001D1B061964
:100110000500002F301C180C1213000000340B0DCA
:100120000E0F3300000000111036373800000000B9
:100130001E1F202122000000002324252627FD0069
:10014000000031382E2D37000049004BFB524C2A5D
:10015000000000004E50514F28000000FC2C4A2B9C
:100160004D29000000003A3B3C3D46390000003E6E
:100170003F404147000000004243444548530000CF
:1001800000545F60615600000000555C5D5E5700E2
:1001900000005862595A5B63E3000000FEE3E0E1AF
:1001A0002A2A2CFF180343006F00640065006E00CC
:1001B00065007400730000000E034B006C006100CA
:1001C00076007200670000000403090409023B0086
:1001D000020100C0320904000001030101000921ED
:1001E00011010001223F00070581030800050904F1
:1001F00001000103010200092111010001224F0049
:10020000070583030800051201100100000008EB38
:10021000034D2001000102000105010906A10105AD
:100220000719E029E7150025017501950881029558
:1002300001750881010508190129059505750191C8
:1002400002950175039101150025FF050719002985
:10025000FF950675088100C005010902A101090189
:10026000A100050919012903150025019503750150
:10027000810295017505810105010930093116805A
:10028000FF267F0036FFFF460100950275088106B4
:10029000A10209381680FF2680FF36FFFF460100C5
:1002A00075088106C0C0C00011241FBECFEFDAE080
:1002B000DEBFCDBF11E0A0E0B1E0E6E3F4E202C0B2
:1002C00005900D92A432B107D9F722E0A4E2B1E083
:1002D00001C01D92A23CB207E1F70E94F70A0C94FC
:1002E00019128ECE209A289A559A5D9A869A8E9ADD
:1002F000879A8F9A239A2B9A229A2A9A269A2E9A2A
:10030000249A2C9A6E9A769A3E9A469A549A5C9AB5
:1003100084988C9A85988D9A2198299A25982D9A57
:1003200057985F9A5098589A5198599A08952898D2
:100330000895289A089595B181E0892785B908958F
:100340005D9808955D9A08958111FACFFBCF809151
:100350002C0181111EC010921602109215021092EB
:1003600018021092170210921A021092190210929B
:100370001C0210921B0210921E0210921D0210927B
:10038000200210921F0210922202109221022E9837
:10039000EFC1813009F046C0499909C08091170228
:1003A00090911802816090931802809317024899E7
:1003B00009C08091190290911A02816090931A02EB
:1003C000809319024F9909C080911B0290911C02E1
:1003D000816090931C0280931B027C9909C08091DC
:1003E0001D0290911E02806190931E0280931D0257
:1003F0007D9909C080911F029091200280619093A5
:10040000200280931F02199909C0809121029091C6
:100410002202806190932202809321022E9A2A98D0
:100420002C98A6C1823009F046C0499909C0809134
:10043000170290911802826090931802809317021D
:10044000489909C08091190290911A028260909394
:100450001A02809319024F9909C080911B02909152
:100460001C02826090931C0280931B027C9909C03D
:1004700080911D0290911E02886090931E028093CD
:100480001D027D9909C080911F0290912002886011
:100490009093200280931F02199909C08091210234
:1004A00090912202886090932202809321022A9ADE
:1004B0002C9A2B985DC1833079F57C9909C0809185
:1004C0001D0290911E02846090931E0280931D0273
:1004D0007D9909C080911F029091200284609093C1
:1004E000200280931F02199909C0809121029091E6
:1004F0002202846090932202809321021D9909C0F8
:10050000809115029091160280629093160280935A
:1005100015022B9A76982CC1843079F5499909C037
:100520008091170290911802846090931802809332
:100530001702489909C08091190290911A028460AB
:1005400090931A02809319024F9909C080911B025F
:1005500090911C02846090931C0280931B021D9951
:1005600009C0809115029091160281609093160245
:1005700080931502769A8E98FBC0853079F57C9928
:1005800009C080911D0290911E02826090931E020C
:1005900080931D027D9909C080911F0290912002D5
:1005A00082609093200280931F02199909C0809164
:1005B0002102909122028260909322028093210274
:1005C0001D9909C080911502909116028061909347
:1005D0001602809315028E9A5C98CAC0863079F50F
:1005E000499909C0809117029091180288609093F0
:1005F000180280931702489909C0809119029091BE
:100600001A02886090931A02809319024F9909C0C8
:1006100080911B0290911C02886090931C02809331
:100620001B021D9909C080911502909116028260EB
:1006300090931602809315025C9A8F9899C0873028
:1006400079F57C9909C080911D0290911E0281600C
:1006500090931E0280931D027D9909C080911F0214
:100660009091200281609093200280931F0219993B
:1006700009C0809121029091220281609093220210
:10068000809321021D9909C0809115029091160254
:10069000886090931602809315028F9A469868C0DE
:1006A000883009F065C0499909C08091170290917E
:1006B000180280619093180280931702489909C02C
:1006C0008091190290911A02806190931A0280938E
:1006D00019024F9909C080911B0290911C02806100
:1006E00090931C0280931B021D9909C080911502F2
:1006F0009091160284609093160280931502469A98
:10070000809115029091160290932E0180932D01F5
:1007100080911702909118029093300180932F01DD
:100720008091190290911A029093320180933101C5
:1007300080911B0290911C029093340180933301AD
:1007400080911D0290911E02909336018093350195
:1007500080911F029091200290933801809337017D
:10076000809121029091220290933A018093390165
:1007700080912C018F5F853118F480932C010895AE
:1007800010922C010895CF9382E090E00E94031212
:100790008093270181E090E00E940312C82F80938C
:1007A000260180E090E00E94031280932501C23070
:1007B00011F081E001C088E080932001CF9108957D
:1007C0006091270182E090E00E940B126091260167
:1007D00081E090E00E940B126091250180E090E0A2
:1007E0000C940B1280912601E0912B01813079F459
:1007F000AE2FB0E0A95BBE4F1C9282E08E0F8093BB
:100800002B01EF5FF0E0E95BFE4F83E01DC08250FB
:10081000AE2FB0E0A95BBE4F823060F48CE28C93C7
:1008200082E08E0F80932B01EF5FF0E0E95BFE4FDB
:1008300088E00AC01C9282E08E0F80932B01EF5F4C
:10084000F0E0E95BFE4F86E0808308958F929F92EF
:10085000AF92BF92CF92DF92EF92FF920F931F93CE
:10086000CF93DF9300D000D000D0CDB7DEB7109289
:100870002A01FE01319696E0DF011D929A95E9F773
:10088000DE0115972FEF3FEF812C90E0EE24E394EB
:10089000F12C99249394082F10E0817253E0C52E17
:1008A000D12CA9014F5F5F4FBD016F5F7F4F253096
:1008B00070F4F601022E02C0EE0FFF1F0A94E2F759
:1008C0005801AE22BF22EA15FB0539F412C091117E
:1008D00004C0813209F049C00CC096303CF125506B
:1008E0003109F80102C0F595E7952A95E2F7E0FF96
:1008F0001DC0FA01E856FE4FE491EE23B9F09111C4
:1009000003C099829E8207C096305CF515969C9232
:10091000159716969C9220E22E0F283038F4E22F7D
:10092000970101C0220FEA95EAF782269F5FDB015B
:100930009A019C3009F0B5CF80922A0126960FB615
:10094000F894DEBF0FBECDBFDF91CF911F910F9105
:10095000FF90EF90DF90CF90BF90AF909F908F90DF
:1009600008952C912111E2CFD6CFDB019A0191E0BD
:1009700098CF982F80912101813071F4892F8F7E3B
:10098000883029F19C3119F1892F877F8430F9F063
:1009900081E09231D1F41DC0811117C0892F877F6A
:1009A0008530A9F088EF890F823088F0903179F096
:1009B0008AEE890F823058F08CEC890F823038F043
:1009C00081E0973331F09D3121F080E0089581E09E
:1009D0000895089584B7877F84BF0FB6F894A895CB
:1009E00080916000886180936000109260000FBE6B
:1009F00090E080E80FB6F8948093610090936100D6
:100A00000FBE70DC94DC0E94950D93CC0895089580
:100A100080E191E00E94131180E091E00E941311A7
:100A2000E2EEF0E0808184608083089580E191E0CF
:100A30000E94E30F80E091E00C94E30F80911E018F
:100A400090911F01009729F0019790931F018093C7
:100A50001E0180910E0190910F01009729F00197DE
:100A600090930F0180930E0108952F923F924F9221
:100A70005F926F927F928F929F92AF92BF92CF922E
:100A8000DF92EF92FF920F931F93CF93DF93CDB737
:100A9000DEB7C454D1090FB6F894DEBF0FBECDBF88
:100AA00023969FAF8EAF23973FAB2EAB1FAF0EAFFA
:100AB00080912B01843608F082C400912D011091A1
:100AC0002E0118A30F8F80902F01909030019AA2D1
:100AD00089A2A0903101B0903201BCA2ABA2E090FB
:100AE0003301F0903401FEA2EDA2609035017090C8
:100AF000360178A66FA220903701309038013AA6CF
:100B000029A6C0903901D0903A01DCA6CBA61FDC03
:100B100020912D0130912E010217130768F1809169
:100B20002F01909130018816990630F180913101A2
:100B300090913201A816B906F8F080913301909196
:100B40003401E816F906C0F0809135019091360124
:100B50006816790688F0809137019091380128163F
:100B6000390650F081E04091390150913A01C416A4
:100B7000D50618F080E001C081E0817021968FAF2A
:100B800021972017310768F180912F019091300152
:100B90008815990530F180913101909132018A15C3
:100BA0009B05F8F080913301909134018E159F05DB
:100BB000C0F080913501909136018615970588F037
:100BC00080913701909138018215930550F081E0B2
:100BD0002091390130913A012C153D0518F080E043
:100BE00001C081E080FF6BC3802F30DE8091220145
:100BF000882309F45EC380902A01882D8D7D21F41D
:100C0000209121012DAB01C01DAA809124018823D0
:100C100069F110922401C30183709927892B29F06F
:100C2000862D8370815080932701C101837099279D
:100C3000892B61F0822D8370815080932601823050
:100C400011F488E001C081E080932001C601837027
:100C50009927892B39F08C2D8370CC24CA94C80E27
:100C6000C092250105FF19C0ABDD17C00031110589
:100C7000B9F444E16416710429F45AE025163104EC
:100C800079F408C08AE06816710451F494E12916D9
:100C9000310431F481E0809324014DDB10E0DCC2AB
:100CA000FE01BD9686E0DF011D928A95E9F7A090CE
:100CB0002B01DE0197968FEF9FEFB12C18AE992490
:100CC00093942801E1E24E225524E3E0EE2EF12C2C
:100CD0009C012F5F3F4F853070F4A701082E02C0A2
:100CE000440F551F0A94E2F7B80164237523461791
:100CF000570749F419C0B11006C0F1E24F1651046C
:100D000009F047C011C045E04B150CF042C00597F3
:100D1000E1E0F0E002C0EE0FFF1F8A95E2F7CF019D
:100D200080239123892BA9F1F901E856FE4F849184
:100D3000882379F1B11003C09DA69AAA0AC0F5E0F4
:100D4000FB150CF44FC415969C92159716969C9221
:100D5000169790E2980F9830E0F08F3F91F08E3F19
:100D600099F08C32A1F0EA2DF0E0E95BFE4F808330
:100D7000E1E0EA0DF0E0A394A394E95BFE4F8082EA
:100D800008C042E04DAB05C053E05DAB02C081E05E
:100D900088AFB3941196C901ECE0BE1299CFA0922E
:100DA0002B0180912501811148C1FE0131968EE110
:100DB000DF011D928A95E9F7F12C10E0A6014E7F24
:100DC0005BAF4AAF55E0A52E4F0169E0E62E8DA935
:100DD00056E3859F20011124CC24C394D12C01E03B
:100DE00082508CAF8F2D0F2C000C990B2091280175
:100DF00030E0821793070CF02FC2FC01EE0FFF1FAB
:100E0000EC5DFD4F2081263034F09CAD923008F42B
:100E100011C1ECE2C2C0880F991FFC01EA5DFD4FD1
:100E2000B080022E000C330B4B2D0B2C000C550BFD
:100E30001B140CF03FC0CA010197A29ED001A39ED3
:100E4000B00D1124A80DB91DBD01680F791FFB015C
:100E5000F081F1112FC0FD01E40FF51F2596FFAFC2
:100E6000EEAF2597E081E11125C0F9013196EE0F33
:100E7000FF1FE80DF91DA68DB78DBCABABABD6013E
:100E8000082E02C0AA0FBB1F0A94E2F7EBA9FCA927
:100E9000AE23BF23AB2B71F0E29EF001E39EF00D79
:100EA0001124E40DF51DE80FF91FE054FF4FE49104
:100EB000E11141C0A29ED001A39EB00D1124A80D46
:100EC000B91DBD01640F751FFB0180818111B2C086
:100ED000FA013196F9AFE8AFEA0FFB1F2596FFAF95
:100EE000EEAF2597E081E1112EC0F3E0FB155CF138
:100EF000F9013196EE0FFF1FE80DF91DD60108AC80
:100F000002C0AA0FBB1F0A94E2F7068CF78DE02DF2
:100F1000CD018E239F23892BB1F0E29EF001E39E49
:100F2000F00D1124E40DF51DE40FF51FE054FF4F03
:100F3000E491EE2341F0DB010C932596AEADBFADFD
:100F400025970C930FC0E29EF001E39EF00D112453
:100F5000E40DF51DE40FF51FEC53FF4FE491EE2374
:100F600009F468C0ED3F51F480912101882309F410
:100F700061C038DC10922101DAD95CC0EC3F51F439
:100F800080912101813009F455C02CDC00932101AE
:100F9000D0D950C0EB3F09F44DC082EE8E0F8A309D
:100FA00080F46114710439F42114310421F44AAD40
:100FB0005BAD452B41F15DA9523029F51D511E0F46
:100FC00039C0EA3411F0ED34F1F480912A01982F00
:100FD0009171C9F090912B01A92FB0E0A95BBE4F90
:100FE000EC93E1E0E90FF0E0E95BFE4F123030F006
:100FF00080839E5F90932B0110E01CC010829E5F47
:1010000090932B0117C080912B01A82FB0E0A95B12
:10101000BE4FEC9391E0980FE92FF0E0913019F476
:1010200090912A0101C090E0E95BFE4F90838E5FB2
:1010300080932B01F394F394D5CEEDA926E3E29FA0
:10104000F0011124FDAFECAF912C10E0AE014F5F29
:101050005F4F5CAB4BABC6018E7F25969FAF8EAFCB
:101060002597882483942E019FE1490E511CA12CC1
:10107000B12CABA9BCA9E5E01D92EA95E9F7AE0158
:101080004F5F5F4F6A018CAD9DAD8A0D9B1D9BAF7D
:101090008AAFE12CF12C2E2D2430A4F4D20112962B
:1010A0004D915C91139783E090E00E2C02C0880F65
:1010B000991F0A94E2F7482359238417950709F0EA
:1010C00096C011C0C701049741E050E002C0440F30
:1010D000551F8A95E2F7F20182819381842395233B
:1010E000892B09F484C0EAADFBADEE0DFF1DE05481
:1010F000FF4F0491002309F47AC024300CF054C24D
:10110000D6018C9211968C92911056C00D3F51F4DD
:1011100080912101882309F46AC064DB10922101C7
:1011200006D965C00C3F59F480912101813009F442
:101130005EC058DBB1E0B0932101FBD858C00B3F33
:1011400009F455C082EE800F8A3090F46114710466
:1011500049F42114310431F42596EEADFFAD259705
:10116000EF2B41F0FDA9F23029F41D51100F3FC0C3
:101170000A3411F00D34D9F490912A01892F81712C
:10118000B1F080912B01E82FF0E0E95BFE4F008386
:10119000E1E0E80FF0E0E95BFE4F123030F09083C1
:1011A0008E5F80932B0110E022C010821DC0802F23
:1011B000E0DB81111CC004C0802FDBDB8823B9F089
:1011C00080912B01E82FF0E0E95BFE4F008391E076
:1011D000980FE92FF0E0913019F490912A0101C0A5
:1011E00090E0E95BFE4F90838E5F80932B012FEFA1
:1011F000E21AF20A4FEFC41AD40A59E0E516F104D4
:1012000009F049CF89E0A80EB11C92E0490E511CAB
:10121000A6E3AA16B10409F02CCF9394B2E09B1276
:1012200022CFA8ADAA23C1F080912B01E82FF0E0D6
:10123000E95BFE4F9CE2908391E0980FE92FF0E08C
:10124000913019F490912A0101C090E0E95BFE4FC2
:1012500090838E5F80932B0180912B01823039F532
:10126000112329F190914701992309F1113031F4AB
:101270008091480188608093480119C0A7E4B1E0DB
:1012800091E02C91E82FF0E0E95BFE4F208311966E
:101290002C911197E1E0E80FF0E08E5FE95BFE4FE3
:1012A00020839F5F1296911760F380932B01109219
:1012B000220180912501811102C0109228012196FE
:1012C000BFAD2197B11103C08F8DC0DA78C081E026
:1012D00080932201809125018111F6CF2F8D38A1B5
:1012E00080912D0190912E01A9014823592348177F
:1012F000590710F520953095807199278223932303
:10130000892BD1F080912801E82FF0E0EE0FFF1F2C
:10131000EC5DFD4F26E030E031832083E1E0E80F13
:10132000F0E0EE0FFF1FEC5DFD4F25E030E0318374
:1013300020838E5F8093280110912801BE016F5D8C
:101340007F4FAFE2B1E040E050E0FB01819191912D
:10135000BF012D913D91FC01E223F323E217F30736
:1013600040F04F5F5F4F4630510579F710932801E9
:10137000ABCF8095822320E030E090E0FC01022E8C
:1013800002C0F595E7950A94E2F7E0FF12C0E12F5D
:10139000F0E0EE0FFF1FEC5DFD4F51834083E1E075
:1013A000E10FF0E0EE0FFF1FEC5DFD4F3183208376
:1013B0001E5F2F5F3F4F2530310501F7D2CF2396B7
:1013C0004EAD5FAD23974051514009F050C0809120
:1013D0002B018823D9F1809147018F3F09F480E0E8
:1013E000AEA9BFA912968C931297809148018C9355
:1013F0008091470190914901891741F080912B011B
:10140000282F30E02150310990E010C08F3FB1F318
:101410008FEF809347011FC0E95BFE4F42814083FD
:10142000438141835081552339F09E5FE92FF0E0DD
:10143000E217F3078CF302C04111F7CF10920E02AE
:1014400010920D02825080932B0105C080912A01D9
:10145000EEA9FFA9808381E0AEA9BFA99C9191115B
:1014600001C080E00E94A40188E090E07EC08091ED
:101470000F0290911002853691050CF09BC0382F19
:101480008C39FFEF9F070CF43CE98C392FEF920762
:101490003CF48C599F4F9093100280930F0204C02C
:1014A0001092100210920F0280911102909112027C
:1014B000853691050CF086C0482F8C395FEF950773
:1014C0000CF44CE98C39AFEF9A073CF48C599F4FE0
:1014D000909312028093110204C010921202109293
:1014E00011028091130290911402853691050CF03F
:1014F00071C0282F8C39BFEF9B070CF42CE98C3975
:10150000EFEF9E073CF48C599F4F90931402809309
:10151000130204C01092140210921302AEA9BFA9C4
:1015200011963C93119712964C93129713962C9305
:1015300013979091B40280912302892B8C93809110
:101540000F0290911002892B71F4809111029091F9
:101550001202892B41F48091130290911402892B7D
:1015600011F41092230284E090E0EEADFFAD918380
:10157000808381E0CC5BDF4F0FB6F894DEBF0FBEF7
:10158000CDBFDF91CF911F910F91FF90EF90DF9032
:10159000CF90BF90AF909F908F907F906F905F9013
:1015A0004F903F902F900895F601349780818111DC
:1015B0001ECEAACD845691099093100280930F02FB
:1015C00034E672CF845691099093120280931102EF
:1015D00044E687CF845691099093140280931302B6
:1015E00024E69CCF9C919111D4CBB3CB0895F2D932
:1015F0007894C9D880E191E029D680E091E026D6A0
:10160000C8D4F8CF292F332723303105C1F058F43F
:101610002130310579F02230310591F58BE390E0EE
:101620002CEC31E039C021323105E1F022323105B4
:1016300001F126C082E190E027E032E02DC0992739
:101640008130910549F028F00297D1F4E4EAF1E005
:1016500005C0E8ECF1E002C0E8EBF1E0849190E035
:101660009F011AC089E090E0662379F027EF31E00E
:1016700013C0662369F08FE490E028E532E00CC0E7
:1016800080E090E020E030E007C02EED31E004C0C3
:101690008FE390E029E132E0FA013183208308955D
:1016A000CF92DF92EF92FF920F931F93CF93DF932E
:1016B000EC018B017A01C6D1811133C0E114F10430
:1016C00039F0F70180819181081B190BC80FD91FD0
:1016D000C12CD12C0115110519F18091E80085FD6F
:1016E00016C08091E8008E778093E80052D4E11410
:1016F000F10449F0F70180819181C80ED91ED18291
:10170000C08285E00EC09ED1882321F30AC0899152
:101710008093F10001501109FFEFCF1ADF0ADACFF1
:1017200080E0DF91CF911F910F91FF90EF90DF90BC
:10173000CF9008952091C0023091C102261737073B
:1017400048F06115710539F42091E8002E77209357
:10175000E80001C0B901FC0120E06115710579F1D3
:101760008091B9028823E1F18530E1F18091E800B0
:1017700083FD34C08091E80082FD2AC08091E8009A
:1017800080FFEBCF2091F3008091F20090E0922B4C
:101790006115710551F08830910538F4219120933D
:1017A000F100615071090196F3CF21E0089709F02B
:1017B00020E08091E8008E778093E800CECF211161
:1017C000CFCF06C08091B902882351F0853051F007
:1017D0008091E80082FFF6CF80E0089581E00895CF
:1017E00082E0089583E008956115710529F4209140
:1017F000E8002B772093E800FC016115710541F1A9
:101800008091B902882361F1853061F18091E8000F
:1018100083FD24C08091E80082FFEFCF2091F30088
:101820008091F20090E0922B892B31F08091F100B1
:1018300081936150710991F78091E8008B778093D3
:10184000E800DBCF8091B902882351F0853051F058
:101850008091E80080FFF6CF80E0089581E0089550
:1018600082E0089583E008952091C0023091C10282
:101870002617370748F06115710539F42091E80003
:101880002E772093E80001C0B901FC0120E061152A
:10189000710591F18091B902882309F43EC0853029
:1018A00009F43DC08091E80083FD35C08091E800D7
:1018B00082FD2BC08091E80080FFE9CF2091F300EA
:1018C0008091F20090E0922B6115710559F08830FB
:1018D000910540F424912093F100319661507109F3
:1018E0000196F2CF21E0089709F020E08091E8000E
:1018F0008E778093E800CBCF2111CCCF06C08091AA
:10190000B902882351F0853051F08091E80082FFC0
:10191000F6CF80E0089581E0089582E0089583E0A5
:101920000895982F973068F59093E900981739F04B
:101930007091EC002091ED005091F00003C0242F35
:10194000762F50E021FD02C09F5FECCF3091EB007D
:101950003E7F3093EB003091ED003D7F3093ED0002
:101960003091EB0031603093EB007093EC002093EA
:10197000ED005093F0002091EE0027FDE5CF80E0D0
:1019800008958F708093E90081E008950F931F936D
:10199000CF93DF93062FEC0110E0101771F16881EF
:1019A000611103C01F5F2596F8CF2C81A981BA81F0
:1019B0009B81862F8F70873010F080E01FC022300F
:1019C00010F442E001C046E0E8E0F0E020E0EA1771
:1019D000FB0720F42F5FEE0FFF1FF9CF2295207F2A
:1019E000422B50E4959F90011124661F6627661FC5
:1019F000622B97DF8111D6CFE0CF81E0DF91CF91CD
:101A00001F910F9108958091BA0287FF11C08091B4
:101A1000E80082FD05C08091B9028111F8CF11C0A4
:101A20008091E8008B770BC08091B902882349F040
:101A30008091E80080FFF8CF8091E8008E77809356
:101A4000E80008952091E4003091E50095E640918A
:101A5000EC00842F817040FF23C08091E80080FD5E
:101A60001DC08091B902882399F0853099F080914A
:101A7000EB0085FD11C04091E4005091E500241772
:101A8000350729F3915011F09A01E1CF84E00895D0
:101A900082E0089583E0089581E0089580E008954C
:101AA0004091E80042FFDDCF08950F931F93CF933D
:101AB000DF934BD052D0C8EDD0E088818F778883F8
:101AC00088818068888388818F7D888319BC109283
:101AD000B9021092B5021092B7021092B60200EE4F
:101AE00010E0F80180818B7F80838881816088830A
:101AF00042E060E080E015DFE1EEF0E080818E7F83
:101B00008083E2EEF0E08081816080838081886064
:101B10008083F80180818E7F8083888180618883C3
:101B2000DF91CF911F910F910895E8EDF0E0808152
:101B30008F7E8083E7EDF0E080818160808384E0A8
:101B400082BF81E08093B802B0CFE8EDF0E0808101
:101B50008E7F80831092E20008951092DA00109236
:101B6000E10008951F920F920FB60F9211242F9348
:101B70003F934F935F936F937F938F939F93AF9315
:101B8000BF93EF93FF938091E10082FF0BC08091A0
:101B9000E20082FF07C08091E1008B7F8093E1002B
:101BA0000E941E058091DA0080FF1FC08091D8003E
:101BB00080FF1BC08091DA008E7F8093DA008091D5
:101BC000D90080FF0DC080E189BD82E189BD09B4E3
:101BD00000FEFDCF81E08093B9020E94060505C09A
:101BE00019BC1092B9020E9407058091E10080FFA4
:101BF00018C08091E20080FF14C08091E2008E7FC7
:101C00008093E2008091E20080618093E200809105
:101C1000D80080628093D80019BC85E08093B90217
:101C2000B7D18091E10084FF2DC08091E20084FF54
:101C300029C080E189BD82E189BD09B400FEFDCFE4
:101C40008091D8008F7D8093D8008091E1008F7EB5
:101C50008093E1008091E2008F7E8093E20080918A
:101C6000E20081608093E2008091B502811106C09C
:101C70008091E30087FD02C081E001C084E0809391
:101C8000B90286D18091E10083FF22C08091E200F9
:101C900083FF1EC08091E100877F8093E10082E096
:101CA0008093B9021092B5028091E1008E7F8093FB
:101CB000E1008091E2008E7F8093E2008091E2005B
:101CC00080618093E20042E060E080E02ADE60D143
:101CD000FF91EF91BF91AF919F918F917F916F9104
:101CE0005F914F913F912F910F900FBE0F901F90DA
:101CF00018951F93CF93DF93CDB7DEB7AA970FB692
:101D0000F894DEBF0FBECDBFEAEBF2E08091F100A8
:101D1000819322E0E23CF207C9F70E941605809108
:101D2000E80083FF1DC18091BA029091BB02492F48
:101D300050E04A30510508F013C1FA01EA5AFF4F4A
:101D40003FC3803881F0823809F00AC18091BE0219
:101D50008F708093E9008091EB0085FB882780F9E4
:101D60001092E90006C08091B6029091B7029111DD
:101D700082609091E800977F9093E8008093F10053
:101D80001092F100C4C0282F2D7F09F0E9C08823EC
:101D900019F0823061F0E4C08091BC02813009F01A
:101DA000DFC0933009F080E08093B7022BC08091B0
:101DB000BC02811127C08091BE028F7009F4D0C08F
:101DC0008093E9002091EB0020FF1CC0933021F4A8
:101DD0008091EB00806214C09091EB009061909331
:101DE000EB0021E030E0A90102C0440F551F8A95A5
:101DF000E2F74093EA001092EA008091EB008860DD
:101E00008093EB001092E9008091E800877F82C008
:101E10008111A6C01091BC021F778091E3008078E9
:101E2000812B8093E3008091E800877F8093E80016
:101E3000EADD8091E80080FFFCCF8091E3008068BC
:101E40008093E300111102C082E001C083E080931F
:101E5000B90286C08058823008F082C08091BC02EE
:101E60009091BD028C3D53E0950771F583E08A8324
:101E70008AE289834FB7F894DE01139620E03EE0B2
:101E800051E2E32FF0E050935700E49120FF03C0AC
:101E9000E295EF703F5FEF708E2F90E0EA3010F028
:101EA000C79601C0C0968D939D932F5F243149F74B
:101EB0004FBF8091E800877F8093E8006AE270E07E
:101EC000CE01019637DC12C0AE014F5F5F4F6091CB
:101ED000BE0298DBBC01892B09F442C09091E80056
:101EE000977F9093E80089819A81BEDC8091E80019
:101EF0008B778093E80034C0803891F58091E800BA
:101F0000877F8093E8008091B5028093F1008091F3
:101F1000E8008E778093E80076DD22C0811120C032
:101F20008091BC029091BD0299270297CCF48091D8
:101F3000E800877F8093E8008091BC028093B5021F
:101F400062DD8091B502811106C08091E30087FDBA
:101F500002C081E001C084E08093B9020E940805BC
:101F60008091E80083FF0AC08091E800877F80931A
:101F7000E8008091EB0080628093EB00AA960FB698
:101F8000F894DEBF0FBECDBFDF91CF911F910895B2
:101F90000895CF938091B902882399F0C091E90008
:101FA000CF709091EC00892F817090FD80E8C82B54
:101FB0001092E9008091E80083FD9BDECF70C09312
:101FC000E900CF9108956F927F928F929F92AF9286
:101FD000BF92CF92DF92EF92FF920F931F93CF9316
:101FE000DF9300D01F92CDB7DEB77C01ADB6BEB691
:101FF0008091E80083FF00C1F701808190E020918B
:10200000BE023091BF022817390709F0F5C0809150
:10201000BB02833009F497C030F4813071F0823014
:1020200009F4CEC0E9C08A3009F4B2C08B3009F49B
:102030009BC0893009F0E0C049C08091BA02813A62
:1020400009F0DAC08DB69EB61A8219828091BC0260
:102050001091BD028B83F7018085482F50E08DB72A
:102060009EB7841B950B0FB6F8949EBF0FBE8DBF15
:10207000EDB7FEB731966F0160E070E0CF01BCD1E3
:102080004FEF410F8E010F5F1F4F9601BE016D5F35
:102090007F4FC7010E943505F70186819781009720
:1020A00021F0408550E0B6019ED11092E900809168
:1020B000E800877F8093E80069817A81C6013ADB76
:1020C0008091E8008B778093E80037C08091BA0256
:1020D000813209F091C08DB69EB60091C002109178
:1020E000C1027090BC026090BD028DB79EB7801B8C
:1020F000910B0FB6F8949EBF0FBE8DBFEDB7FEB724
:1021000031966F018091E800877F8093E800B801E5
:10211000CF016ADB8091E8008E778093E80021E0B0
:10212000711001C020E030E0021B130B2C0D3D1D8F
:102130004FEF460D672DC70159DA0FB6F8949EBED2
:102140000FBE8DBE59C08091BA02813A09F054C0C9
:102150008091E800877F8093E8008091E80080FF0D
:10216000FCCFF701818540C08091BA02813209F02D
:1021700043C08091E800877F8093E80044DC909121
:10218000BC0281E0911101C080E0F701818734C079
:102190008091BA02813281F58091E800877F809337
:1021A000E80031DC8091BC029091BD02882736E0C6
:1021B000969587953A95E1F7F701958784871CC036
:1021C0008091BA02813AC1F48091E800877F8093C0
:1021D000E8008091E80080FFFCCFF70184859585B9
:1021E00096958795969587958093F1008091E80064
:1021F0008E778093E80007DC0FB6F894BEBE0FBE62
:10220000ADBE0F900F900F90DF91CF911F910F9166
:10221000FF90EF90DF90CF90BF90AF909F908F9006
:102220007F906F900895FC01399627E0DF011D92A1
:102230002A95E9F721E0FC01218724EF31E0358779
:10224000248723E0248361E00196A0CB5F926F9204
:102250007F928F929F92AF92BF92CF92DF92EF9236
:10226000FF920F931F93CF93DF9300D01F92CDB7B0
:10227000DEB77C01ADB6BEB68091B902843009F0FC
:1022800087C08091E4009091E500F70122853385B5
:102290002817390709F47CC081818F708093E90089
:1022A0008091E80085FF74C08DB69EB6408550E0F1
:1022B0008DB79EB7841B950B0FB6F8949EBF0FBECB
:1022C0008DBFEDB7FEB731966F011B821A8219825E
:1022D00060E070E0CF0190D08E010F5F1F4F96013C
:1022E00040E0BE016D5F7F4FC7010E943505582E4B
:1022F000F70184859585892B29F011E086859785DE
:10230000892B09F010E0F701668077806114710471
:1023100081F049815A81B301C60158D001E0892B6F
:1023200009F400E0F701408550E0B601C3015BD03D
:1023300001C000E089819A81892BF1F0511004C01D
:10234000011102C010FF18C0F70184859585978799
:10235000868781818F708093E9008B8181118093C2
:10236000F10069817A8140E050E0C60199D98091FD
:10237000E8008E778093E8008091E4009091E5007A
:10238000F701938782870FB6F8949EBE0FBE8DBE6D
:102390000FB6F894BEBE0FBEADBE0F900F900F905B
:1023A000DF91CF911F910F91FF90EF90DF90CF9031
:1023B000BF90AF909F908F907F906F905F900895A7
:1023C000EE0FFF1F0590F491E02D0994FB01DC0155
:1023D00004C08D910190801921F441505040C8F7FC
:1023E000881B990B0895FB01DC0102C001900D923E
:1023F00041505040D8F70895DC0101C06D93415021
:102400005040E0F70895F999FECF92BD81BDF89A4A
:10241000992780B50895262FF999FECF1FBA92BD4E
:1024200081BD20BD0FB6F894FA9AF99A0FBE0196B5
:062430000895F894FFCFAF
:102436000183080000013B010400000000000000C9
:102446000081080000013F010800000000000000B4
:04245600010101007F
:00000001FF
